{
  "_format": "hh-sol-artifact-1",
  "contractName": "EchoRegistry",
  "sourceName": "contracts/EchoRegistry.sol",
  "abi": [
    {
      "inputs": [
        {
          "internalType": "address",
          "name": "_treasury",
          "type": "address"
        }
      ],
      "stateMutability": "nonpayable",
      "type": "constructor"
    },
    {
      "inputs": [
        {
          "internalType": "address",
          "name": "owner",
          "type": "address"
        }
      ],
      "name": "OwnableInvalidOwner",
      "type": "error"
    },
    {
      "inputs": [
        {
          "internalType": "address",
          "name": "account",
          "type": "address"
        }
      ],
      "name": "OwnableUnauthorizedAccount",
      "type": "error"
    },
    {
      "inputs": [],
      "name": "ReentrancyGuardReentrantCall",
      "type": "error"
    },
    {
      "anonymous": false,
      "inputs": [
        {
          "indexed": true,
          "internalType": "string",
          "name": "parentNoteId",
          "type": "string"
        },
        {
          "indexed": true,
          "internalType": "string",
          "name": "echoNoteId",
          "type": "string"
        },
        {
          "indexed": false,
          "internalType": "address",
          "name": "echoBroadcaster",
          "type": "address"
        },
        {
          "indexed": false,
          "internalType": "address",
          "name": "parentBroadcaster",
          "type": "address"
        },
        {
          "indexed": false,
          "internalType": "uint256",
          "name": "timestamp",
          "type": "uint256"
        },
        {
          "indexed": false,
          "internalType": "uint256",
          "name": "creatorPayment",
          "type": "uint256"
        },
        {
          "indexed": false,
          "internalType": "uint256",
          "name": "platformPayment",
          "type": "uint256"
        }
      ],
      "name": "EchoRegistered",
      "type": "event"
    },
    {
      "anonymous": false,
      "inputs": [
        {
          "indexed": true,
          "internalType": "address",
          "name": "previousOwner",
          "type": "address"
        },
        {
          "indexed": true,
          "internalType": "address",
          "name": "newOwner",
          "type": "address"
        }
      ],
      "name": "OwnershipTransferred",
      "type": "event"
    },
    {
      "anonymous": false,
      "inputs": [
        {
          "indexed": false,
          "internalType": "address",
          "name": "oldTreasury",
          "type": "address"
        },
        {
          "indexed": false,
          "internalType": "address",
          "name": "newTreasury",
          "type": "address"
        }
      ],
      "name": "TreasuryUpdated",
      "type": "event"
    },
    {
      "inputs": [],
      "name": "CREATOR_SHARE",
      "outputs": [
        {
          "internalType": "uint256",
          "name": "",
          "type": "uint256"
        }
      ],
      "stateMutability": "view",
      "type": "function"
    },
    {
      "inputs": [],
      "name": "ECHO_FEE",
      "outputs": [
        {
          "internalType": "uint256",
          "name": "",
          "type": "uint256"
        }
      ],
      "stateMutability": "view",
      "type": "function"
    },
    {
      "inputs": [],
      "name": "PLATFORM_SHARE",
      "outputs": [
        {
          "internalType": "uint256",
          "name": "",
          "type": "uint256"
        }
      ],
      "stateMutability": "view",
      "type": "function"
    },
    {
      "inputs": [
        {
          "internalType": "string",
          "name": "noteId",
          "type": "string"
        }
      ],
      "name": "checkIsEcho",
      "outputs": [
        {
          "internalType": "bool",
          "name": "",
          "type": "bool"
        }
      ],
      "stateMutability": "view",
      "type": "function"
    },
    {
      "inputs": [
        {
          "internalType": "string",
          "name": "",
          "type": "string"
        }
      ],
      "name": "echoCount",
      "outputs": [
        {
          "internalType": "uint256",
          "name": "",
          "type": "uint256"
        }
      ],
      "stateMutability": "view",
      "type": "function"
    },
    {
      "inputs": [
        {
          "internalType": "string",
          "name": "",
          "type": "string"
        }
      ],
      "name": "echoParent",
      "outputs": [
        {
          "internalType": "string",
          "name": "",
          "type": "string"
        }
      ],
      "stateMutability": "view",
      "type": "function"
    },
    {
      "inputs": [
        {
          "internalType": "string",
          "name": "",
          "type": "string"
        },
        {
          "internalType": "uint256",
          "name": "",
          "type": "uint256"
        }
      ],
      "name": "echoesByParent",
      "outputs": [
        {
          "internalType": "string",
          "name": "echoNoteId",
          "type": "string"
        },
        {
          "internalType": "string",
          "name": "parentNoteId",
          "type": "string"
        },
        {
          "internalType": "string",
          "name": "metadataUrl",
          "type": "string"
        },
        {
          "internalType": "address",
          "name": "echoBroadcaster",
          "type": "address"
        },
        {
          "internalType": "address",
          "name": "parentBroadcaster",
          "type": "address"
        },
        {
          "internalType": "uint256",
          "name": "timestamp",
          "type": "uint256"
        }
      ],
      "stateMutability": "view",
      "type": "function"
    },
    {
      "inputs": [
        {
          "internalType": "string",
          "name": "parentNoteId",
          "type": "string"
        }
      ],
      "name": "getEchoCount",
      "outputs": [
        {
          "internalType": "uint256",
          "name": "",
          "type": "uint256"
        }
      ],
      "stateMutability": "view",
      "type": "function"
    },
    {
      "inputs": [],
      "name": "getEchoFee",
      "outputs": [
        {
          "internalType": "uint256",
          "name": "",
          "type": "uint256"
        }
      ],
      "stateMutability": "pure",
      "type": "function"
    },
    {
      "inputs": [
        {
          "internalType": "string",
          "name": "parentNoteId",
          "type": "string"
        }
      ],
      "name": "getEchoes",
      "outputs": [
        {
          "components": [
            {
              "internalType": "string",
              "name": "echoNoteId",
              "type": "string"
            },
            {
              "internalType": "string",
              "name": "parentNoteId",
              "type": "string"
            },
            {
              "internalType": "string",
              "name": "metadataUrl",
              "type": "string"
            },
            {
              "internalType": "address",
              "name": "echoBroadcaster",
              "type": "address"
            },
            {
              "internalType": "address",
              "name": "parentBroadcaster",
              "type": "address"
            },
            {
              "internalType": "uint256",
              "name": "timestamp",
              "type": "uint256"
            }
          ],
          "internalType": "struct EchoRegistry.Echo[]",
          "name": "",
          "type": "tuple[]"
        }
      ],
      "stateMutability": "view",
      "type": "function"
    },
    {
      "inputs": [
        {
          "internalType": "string",
          "name": "echoNoteId",
          "type": "string"
        }
      ],
      "name": "getParent",
      "outputs": [
        {
          "internalType": "string",
          "name": "",
          "type": "string"
        }
      ],
      "stateMutability": "view",
      "type": "function"
    },
    {
      "inputs": [
        {
          "internalType": "string",
          "name": "",
          "type": "string"
        }
      ],
      "name": "isEcho",
      "outputs": [
        {
          "internalType": "bool",
          "name": "",
          "type": "bool"
        }
      ],
      "stateMutability": "view",
      "type": "function"
    },
    {
      "inputs": [],
      "name": "owner",
      "outputs": [
        {
          "internalType": "address",
          "name": "",
          "type": "address"
        }
      ],
      "stateMutability": "view",
      "type": "function"
    },
    {
      "inputs": [
        {
          "internalType": "string",
          "name": "parentNoteId",
          "type": "string"
        },
        {
          "internalType": "string",
          "name": "echoNoteId",
          "type": "string"
        },
        {
          "internalType": "string",
          "name": "metadataUrl",
          "type": "string"
        },
        {
          "internalType": "address",
          "name": "parentBroadcaster",
          "type": "address"
        }
      ],
      "name": "registerEcho",
      "outputs": [],
      "stateMutability": "payable",
      "type": "function"
    },
    {
      "inputs": [],
      "name": "renounceOwnership",
      "outputs": [],
      "stateMutability": "nonpayable",
      "type": "function"
    },
    {
      "inputs": [
        {
          "internalType": "address",
          "name": "newTreasury",
          "type": "address"
        }
      ],
      "name": "setTreasury",
      "outputs": [],
      "stateMutability": "nonpayable",
      "type": "function"
    },
    {
      "inputs": [
        {
          "internalType": "address",
          "name": "newOwner",
          "type": "address"
        }
      ],
      "name": "transferOwnership",
      "outputs": [],
      "stateMutability": "nonpayable",
      "type": "function"
    },
    {
      "inputs": [],
      "name": "treasury",
      "outputs": [
        {
          "internalType": "address",
          "name": "",
          "type": "address"
        }
      ],
      "stateMutability": "view",
      "type": "function"
    }
  ],
  "bytecode": "0x60806040523480156200001157600080fd5b5060405162001a9038038062001a9083398101604081905262000034916200013a565b33806200005c57604051631e4fbdf760e01b8152600060048201526024015b60405180910390fd5b6200006781620000ea565b50600180556001600160a01b038116620000c45760405162461bcd60e51b815260206004820152601860248201527f496e76616c696420747265617375727920616464726573730000000000000000604482015260640162000053565b600280546001600160a01b0319166001600160a01b03929092169190911790556200016c565b600080546001600160a01b038381166001600160a01b0319831681178455604051919092169283917f8be0079c531659141344cd1fd0a4f28419497f9722a3daafe3b4186f6b6457e09190a35050565b6000602082840312156200014d57600080fd5b81516001600160a01b03811681146200016557600080fd5b9392505050565b611914806200017c6000396000f3fe6080604052600436106101095760003560e01c8063885950a711610095578063e55ffcc111610064578063e55ffcc1146102fa578063e9e96f7514610327578063f0f442601461033a578063f2fde38b1461035a578063fe8c7f541461037a57600080fd5b8063885950a71461027d5780638da5cb5b146102af578063c759e5f6146102cd578063cc0c30391461021657600080fd5b806361d027b3116100dc57806361d027b3146101c357806364361f70146101fb57806366fab57c14610216578063715018a61461022b578063805f9d751461024257600080fd5b80630da7cb5e1461010e5780630f54b88e14610141578063355703b7146101715780634f3f42921461018b575b600080fd5b34801561011a57600080fd5b5061012e610129366004611271565b61039a565b6040519081526020015b60405180910390f35b34801561014d57600080fd5b5061016161015c366004611271565b6103c6565b6040519015158152602001610138565b34801561017d57600080fd5b5066038d7ea4c6800061012e565b34801561019757600080fd5b5061012e6101a6366004611356565b805160208183018101805160048252928201919093012091525481565b3480156101cf57600080fd5b506002546101e3906001600160a01b031681565b6040516001600160a01b039091168152602001610138565b34801561020757600080fd5b5061012e66038d7ea4c6800081565b34801561022257600080fd5b5061012e603281565b34801561023757600080fd5b506102406103f5565b005b34801561024e57600080fd5b5061016161025d366004611356565b805160208183018101805160058252928201919093012091525460ff1681565b34801561028957600080fd5b5061029d610298366004611393565b610409565b6040516101389695949392919061141e565b3480156102bb57600080fd5b506000546001600160a01b03166101e3565b3480156102d957600080fd5b506102ed6102e8366004611271565b610616565b604051610138919061147d565b34801561030657600080fd5b5061031a610315366004611271565b61087e565b604051610138919061154d565b610240610335366004611583565b610995565b34801561034657600080fd5b5061024061035536600461162e565b610fdf565b34801561036657600080fd5b5061024061037536600461162e565b61109e565b34801561038657600080fd5b5061031a610395366004611356565b6110dc565b6000600483836040516103ae929190611649565b90815260200160405180910390205490505b92915050565b6000600583836040516103da929190611649565b9081526040519081900360200190205460ff16905092915050565b6103fd611181565b61040760006111ae565b565b8151602081840181018051600382529282019185019190912091905280548290811061043457600080fd5b90600052602060002090600602016000915091505080600001805461045890611659565b80601f016020809104026020016040519081016040528092919081815260200182805461048490611659565b80156104d15780601f106104a6576101008083540402835291602001916104d1565b820191906000526020600020905b8154815290600101906020018083116104b457829003601f168201915b5050505050908060010180546104e690611659565b80601f016020809104026020016040519081016040528092919081815260200182805461051290611659565b801561055f5780601f106105345761010080835404028352916020019161055f565b820191906000526020600020905b81548152906001019060200180831161054257829003601f168201915b50505050509080600201805461057490611659565b80601f01602080910402602001604051908101604052809291908181526020018280546105a090611659565b80156105ed5780601f106105c2576101008083540402835291602001916105ed565b820191906000526020600020905b8154815290600101906020018083116105d057829003601f168201915b505050506003830154600484015460059094015492936001600160a01b03918216939116915086565b60606003838360405161062a929190611649565b9081526020016040518091039020805480602002602001604051908101604052809291908181526020016000905b8282101561087257838290600052602060002090600602016040518060c001604052908160008201805461068b90611659565b80601f01602080910402602001604051908101604052809291908181526020018280546106b790611659565b80156107045780601f106106d957610100808354040283529160200191610704565b820191906000526020600020905b8154815290600101906020018083116106e757829003601f168201915b5050505050815260200160018201805461071d90611659565b80601f016020809104026020016040519081016040528092919081815260200182805461074990611659565b80156107965780601f1061076b57610100808354040283529160200191610796565b820191906000526020600020905b81548152906001019060200180831161077957829003601f168201915b505050505081526020016002820180546107af90611659565b80601f01602080910402602001604051908101604052809291908181526020018280546107db90611659565b80156108285780601f106107fd57610100808354040283529160200191610828565b820191906000526020600020905b81548152906001019060200180831161080b57829003601f168201915b505050918352505060038201546001600160a01b03908116602080840191909152600484015490911660408301526005909201546060909101529082526001929092019101610658565b50505050905092915050565b606060058383604051610892929190611649565b9081526040519081900360200190205460ff166108e45760405162461bcd60e51b815260206004820152600b60248201526a4e6f7420616e206563686f60a81b60448201526064015b60405180910390fd5b600683836040516108f6929190611649565b9081526020016040518091039020805461090f90611659565b80601f016020809104026020016040519081016040528092919081815260200182805461093b90611659565b80156109885780601f1061095d57610100808354040283529160200191610988565b820191906000526020600020905b81548152906001019060200180831161096b57829003601f168201915b5050505050905092915050565b61099d6111fe565b856109de5760405162461bcd60e51b8152602060048201526011602482015270125b9d985b1a59081c185c995b9d081251607a1b60448201526064016108db565b83610a1d5760405162461bcd60e51b815260206004820152600f60248201526e125b9d985b1a59081958da1bc81251608a1b60448201526064016108db565b60058585604051610a2f929190611649565b9081526040519081900360200190205460ff1615610a8f5760405162461bcd60e51b815260206004820152601a60248201527f416c72656164792072656769737465726564206173206563686f00000000000060448201526064016108db565b8686604051610a9f929190611649565b60405180910390208585604051610ab7929190611649565b604051809103902003610b015760405162461bcd60e51b815260206004820152601260248201527121b0b73737ba1032b1b4379034ba39b2b63360711b60448201526064016108db565b6001600160a01b038116610b575760405162461bcd60e51b815260206004820152601a60248201527f496e76616c696420706172656e742062726f616463617374657200000000000060448201526064016108db565b66038d7ea4c68000341015610ba65760405162461bcd60e51b8152602060048201526015602482015274496e73756666696369656e74206563686f2066656560581b60448201526064016108db565b60006064610bb56032346116a9565b610bbf91906116c0565b90506000610bcd82346116e2565b905060038989604051610be1929190611649565b90815260200160405180910390206040518060c0016040528089898080601f016020809104026020016040519081016040528093929190818152602001838380828437600092019190915250505090825250604080516020601f8e018190048102820181019092528c815291810191908d908d9081908401838280828437600092019190915250505090825250604080516020601f8a018190048102820181019092528881529181019190899089908190840183828082843760009201829052509385525050336020808501919091526001600160a01b038916604085015242606090940193909352508354600181018555938152208151919260060201908190610cec9082611744565b5060208201516001820190610d019082611744565b5060408201516002820190610d169082611744565b5060608201516003820180546001600160a01b039283166001600160a01b031991821617909155608084015160048401805491909316911617905560a09091015160059182015560405160019190610d71908a908a90611649565b908152604051908190036020018120805492151560ff199093169290921790915589908990600690610da6908b908b90611649565b90815260200160405180910390209182610dc1929190611804565b5060048989604051610dd4929190611649565b9081526040519081900360200190208054906000610df1836118c5565b90915550508115610e9a576000836001600160a01b03168360405160006040518083038185875af1925050503d8060008114610e49576040519150601f19603f3d011682016040523d82523d6000602084013e610e4e565b606091505b5050905080610e985760405162461bcd60e51b815260206004820152601660248201527510dc99585d1bdc881c185e5b595b9d0819985a5b195960521b60448201526064016108db565b505b8015610f45576002546040516000916001600160a01b03169083908381818185875af1925050503d8060008114610eed576040519150601f19603f3d011682016040523d82523d6000602084013e610ef2565b606091505b5050905080610f435760405162461bcd60e51b815260206004820152601760248201527f506c6174666f726d207061796d656e74206661696c656400000000000000000060448201526064016108db565b505b8686604051610f55929190611649565b60405180910390208989604051610f6d929190611649565b604080519182900382203383526001600160a01b038716602084015242838301526060830186905260808301859052905190917f4442d42ecd976eb6ce07c6b9d37676c1a75d6df21fed41a7c0bdc8fbabea0843919081900360a00190a35050610fd660018055565b50505050505050565b610fe7611181565b6001600160a01b03811661103d5760405162461bcd60e51b815260206004820152601860248201527f496e76616c69642074726561737572792061646472657373000000000000000060448201526064016108db565b600280546001600160a01b038381166001600160a01b031983168117909355604080519190921680825260208201939093527f4ab5be82436d353e61ca18726e984e561f5c1cc7c6d38b29d2553c790434705a910160405180910390a15050565b6110a6611181565b6001600160a01b0381166110d057604051631e4fbdf760e01b8152600060048201526024016108db565b6110d9816111ae565b50565b80516020818301810180516006825292820191909301209152805461110090611659565b80601f016020809104026020016040519081016040528092919081815260200182805461112c90611659565b80156111795780601f1061114e57610100808354040283529160200191611179565b820191906000526020600020905b81548152906001019060200180831161115c57829003601f168201915b505050505081565b6000546001600160a01b031633146104075760405163118cdaa760e01b81523360048201526024016108db565b600080546001600160a01b038381166001600160a01b0319831681178455604051919092169283917f8be0079c531659141344cd1fd0a4f28419497f9722a3daafe3b4186f6b6457e09190a35050565b60026001540361122157604051633ee5aeb560e01b815260040160405180910390fd5b6002600155565b60008083601f84011261123a57600080fd5b50813567ffffffffffffffff81111561125257600080fd5b60208301915083602082850101111561126a57600080fd5b9250929050565b6000806020838503121561128457600080fd5b823567ffffffffffffffff81111561129b57600080fd5b6112a785828601611228565b90969095509350505050565b634e487b7160e01b600052604160045260246000fd5b600082601f8301126112da57600080fd5b813567ffffffffffffffff808211156112f5576112f56112b3565b604051601f8301601f19908116603f0116810190828211818310171561131d5761131d6112b3565b8160405283815286602085880101111561133657600080fd5b836020870160208301376000602085830101528094505050505092915050565b60006020828403121561136857600080fd5b813567ffffffffffffffff81111561137f57600080fd5b61138b848285016112c9565b949350505050565b600080604083850312156113a657600080fd5b823567ffffffffffffffff8111156113bd57600080fd5b6113c9858286016112c9565b95602094909401359450505050565b6000815180845260005b818110156113fe576020818501810151868301820152016113e2565b506000602082860101526020601f19601f83011685010191505092915050565b60c08152600061143160c08301896113d8565b828103602084015261144381896113d8565b9050828103604084015261145781886113d8565b6001600160a01b0396871660608501529490951660808301525060a00152949350505050565b60006020808301818452808551808352604092508286019150828160051b87010184880160005b8381101561153f57603f19898403018552815160c081518186526114ca828701826113d8565b915050888201518582038a8701526114e282826113d8565b91505087820151858203898701526114fa82826113d8565b6060848101516001600160a01b03908116918901919091526080808601519091169088015260a0938401519390960192909252505093860193908601906001016114a4565b509098975050505050505050565b60208152600061156060208301846113d8565b9392505050565b80356001600160a01b038116811461157e57600080fd5b919050565b60008060008060008060006080888a03121561159e57600080fd5b873567ffffffffffffffff808211156115b657600080fd5b6115c28b838c01611228565b909950975060208a01359150808211156115db57600080fd5b6115e78b838c01611228565b909750955060408a013591508082111561160057600080fd5b5061160d8a828b01611228565b9094509250611620905060608901611567565b905092959891949750929550565b60006020828403121561164057600080fd5b61156082611567565b8183823760009101908152919050565b600181811c9082168061166d57607f821691505b60208210810361168d57634e487b7160e01b600052602260045260246000fd5b50919050565b634e487b7160e01b600052601160045260246000fd5b80820281158282048414176103c0576103c0611693565b6000826116dd57634e487b7160e01b600052601260045260246000fd5b500490565b818103818111156103c0576103c0611693565b601f82111561173f57600081815260208120601f850160051c8101602086101561171c5750805b601f850160051c820191505b8181101561173b57828155600101611728565b5050505b505050565b815167ffffffffffffffff81111561175e5761175e6112b3565b6117728161176c8454611659565b846116f5565b602080601f8311600181146117a7576000841561178f5750858301515b600019600386901b1c1916600185901b17855561173b565b600085815260208120601f198616915b828110156117d6578886015182559484019460019091019084016117b7565b50858210156117f45787850151600019600388901b60f8161c191681555b5050505050600190811b01905550565b67ffffffffffffffff83111561181c5761181c6112b3565b6118308361182a8354611659565b836116f5565b6000601f841160018114611864576000851561184c5750838201355b600019600387901b1c1916600186901b1783556118be565b600083815260209020601f19861690835b828110156118955786850135825560209485019460019092019101611875565b50868210156118b25760001960f88860031b161c19848701351681555b505060018560011b0183555b5050505050565b6000600182016118d7576118d7611693565b506001019056fea264697066735822122096b34f75c66242fd178158436a2677d9f377f8e02f549b0d61dd1b90a7fa1f6164736f6c63430008140033",
  "linkReferences": {},
  "deployedLinkReferences": {}
}