{
  "_format": "hh-sol-artifact-1",
  "contractName": "EchoRegistry",
  "sourceName": "contracts/EchoRegistry.sol",
  "abi": [
    {
      "inputs": [
        {
          "internalType": "address",
          "name": "_treasury",
          "type": "address"
        }
      ],
      "stateMutability": "nonpayable",
      "type": "constructor"
    },
    {
      "inputs": [
        {
          "internalType": "address",
          "name": "owner",
          "type": "address"
        }
      ],
      "name": "OwnableInvalidOwner",
      "type": "error"
    },
    {
      "inputs": [
        {
          "internalType": "address",
          "name": "account",
          "type": "address"
        }
      ],
      "name": "OwnableUnauthorizedAccount",
      "type": "error"
    },
    {
      "inputs": [],
      "name": "ReentrancyGuardReentrantCall",
      "type": "error"
    },
    {
      "anonymous": false,
      "inputs": [
        {
          "indexed": true,
          "internalType": "string",
          "name": "parentNoteId",
          "type": "string"
        },
        {
          "indexed": true,
          "internalType": "string",
          "name": "echoNoteId",
          "type": "string"
        },
        {
          "indexed": false,
          "internalType": "address",
          "name": "echoBroadcaster",
          "type": "address"
        },
        {
          "indexed": false,
          "internalType": "address",
          "name": "parentBroadcaster",
          "type": "address"
        },
        {
          "indexed": false,
          "internalType": "uint256",
          "name": "timestamp",
          "type": "uint256"
        },
        {
          "indexed": false,
          "internalType": "uint256",
          "name": "creatorPayment",
          "type": "uint256"
        },
        {
          "indexed": false,
          "internalType": "uint256",
          "name": "platformPayment",
          "type": "uint256"
        }
      ],
      "name": "EchoRegistered",
      "type": "event"
    },
    {
      "anonymous": false,
      "inputs": [
        {
          "indexed": true,
          "internalType": "address",
          "name": "previousOwner",
          "type": "address"
        },
        {
          "indexed": true,
          "internalType": "address",
          "name": "newOwner",
          "type": "address"
        }
      ],
      "name": "OwnershipTransferred",
      "type": "event"
    },
    {
      "anonymous": false,
      "inputs": [
        {
          "indexed": false,
          "internalType": "address",
          "name": "oldTreasury",
          "type": "address"
        },
        {
          "indexed": false,
          "internalType": "address",
          "name": "newTreasury",
          "type": "address"
        }
      ],
      "name": "TreasuryUpdated",
      "type": "event"
    },
    {
      "inputs": [],
      "name": "CREATOR_SHARE",
      "outputs": [
        {
          "internalType": "uint256",
          "name": "",
          "type": "uint256"
        }
      ],
      "stateMutability": "view",
      "type": "function"
    },
    {
      "inputs": [],
      "name": "ECHO_FEE",
      "outputs": [
        {
          "internalType": "uint256",
          "name": "",
          "type": "uint256"
        }
      ],
      "stateMutability": "view",
      "type": "function"
    },
    {
      "inputs": [],
      "name": "PLATFORM_SHARE",
      "outputs": [
        {
          "internalType": "uint256",
          "name": "",
          "type": "uint256"
        }
      ],
      "stateMutability": "view",
      "type": "function"
    },
    {
      "inputs": [
        {
          "internalType": "string",
          "name": "noteId",
          "type": "string"
        }
      ],
      "name": "checkIsEcho",
      "outputs": [
        {
          "internalType": "bool",
          "name": "",
          "type": "bool"
        }
      ],
      "stateMutability": "view",
      "type": "function"
    },
    {
      "inputs": [
        {
          "internalType": "string",
          "name": "",
          "type": "string"
        }
      ],
      "name": "echoCount",
      "outputs": [
        {
          "internalType": "uint256",
          "name": "",
          "type": "uint256"
        }
      ],
      "stateMutability": "view",
      "type": "function"
    },
    {
      "inputs": [
        {
          "internalType": "string",
          "name": "",
          "type": "string"
        }
      ],
      "name": "echoParent",
      "outputs": [
        {
          "internalType": "string",
          "name": "",
          "type": "string"
        }
      ],
      "stateMutability": "view",
      "type": "function"
    },
    {
      "inputs": [
        {
          "internalType": "string",
          "name": "",
          "type": "string"
        },
        {
          "internalType": "uint256",
          "name": "",
          "type": "uint256"
        }
      ],
      "name": "echoesByParent",
      "outputs": [
        {
          "internalType": "string",
          "name": "echoNoteId",
          "type": "string"
        },
        {
          "internalType": "string",
          "name": "parentNoteId",
          "type": "string"
        },
        {
          "internalType": "address",
          "name": "echoBroadcaster",
          "type": "address"
        },
        {
          "internalType": "address",
          "name": "parentBroadcaster",
          "type": "address"
        },
        {
          "internalType": "uint256",
          "name": "timestamp",
          "type": "uint256"
        }
      ],
      "stateMutability": "view",
      "type": "function"
    },
    {
      "inputs": [
        {
          "internalType": "string",
          "name": "parentNoteId",
          "type": "string"
        }
      ],
      "name": "getEchoCount",
      "outputs": [
        {
          "internalType": "uint256",
          "name": "",
          "type": "uint256"
        }
      ],
      "stateMutability": "view",
      "type": "function"
    },
    {
      "inputs": [],
      "name": "getEchoFee",
      "outputs": [
        {
          "internalType": "uint256",
          "name": "",
          "type": "uint256"
        }
      ],
      "stateMutability": "pure",
      "type": "function"
    },
    {
      "inputs": [
        {
          "internalType": "string",
          "name": "parentNoteId",
          "type": "string"
        }
      ],
      "name": "getEchoes",
      "outputs": [
        {
          "components": [
            {
              "internalType": "string",
              "name": "echoNoteId",
              "type": "string"
            },
            {
              "internalType": "string",
              "name": "parentNoteId",
              "type": "string"
            },
            {
              "internalType": "address",
              "name": "echoBroadcaster",
              "type": "address"
            },
            {
              "internalType": "address",
              "name": "parentBroadcaster",
              "type": "address"
            },
            {
              "internalType": "uint256",
              "name": "timestamp",
              "type": "uint256"
            }
          ],
          "internalType": "struct EchoRegistry.Echo[]",
          "name": "",
          "type": "tuple[]"
        }
      ],
      "stateMutability": "view",
      "type": "function"
    },
    {
      "inputs": [
        {
          "internalType": "string",
          "name": "echoNoteId",
          "type": "string"
        }
      ],
      "name": "getParent",
      "outputs": [
        {
          "internalType": "string",
          "name": "",
          "type": "string"
        }
      ],
      "stateMutability": "view",
      "type": "function"
    },
    {
      "inputs": [
        {
          "internalType": "string",
          "name": "",
          "type": "string"
        }
      ],
      "name": "isEcho",
      "outputs": [
        {
          "internalType": "bool",
          "name": "",
          "type": "bool"
        }
      ],
      "stateMutability": "view",
      "type": "function"
    },
    {
      "inputs": [],
      "name": "owner",
      "outputs": [
        {
          "internalType": "address",
          "name": "",
          "type": "address"
        }
      ],
      "stateMutability": "view",
      "type": "function"
    },
    {
      "inputs": [
        {
          "internalType": "string",
          "name": "parentNoteId",
          "type": "string"
        },
        {
          "internalType": "string",
          "name": "echoNoteId",
          "type": "string"
        },
        {
          "internalType": "address",
          "name": "parentBroadcaster",
          "type": "address"
        }
      ],
      "name": "registerEcho",
      "outputs": [],
      "stateMutability": "payable",
      "type": "function"
    },
    {
      "inputs": [],
      "name": "renounceOwnership",
      "outputs": [],
      "stateMutability": "nonpayable",
      "type": "function"
    },
    {
      "inputs": [
        {
          "internalType": "address",
          "name": "newTreasury",
          "type": "address"
        }
      ],
      "name": "setTreasury",
      "outputs": [],
      "stateMutability": "nonpayable",
      "type": "function"
    },
    {
      "inputs": [
        {
          "internalType": "address",
          "name": "newOwner",
          "type": "address"
        }
      ],
      "name": "transferOwnership",
      "outputs": [],
      "stateMutability": "nonpayable",
      "type": "function"
    },
    {
      "inputs": [],
      "name": "treasury",
      "outputs": [
        {
          "internalType": "address",
          "name": "",
          "type": "address"
        }
      ],
      "stateMutability": "view",
      "type": "function"
    }
  ],
  "bytecode": "0x60806040523480156200001157600080fd5b50604051620018c1380380620018c183398101604081905262000034916200013a565b33806200005c57604051631e4fbdf760e01b8152600060048201526024015b60405180910390fd5b6200006781620000ea565b50600180556001600160a01b038116620000c45760405162461bcd60e51b815260206004820152601860248201527f496e76616c696420747265617375727920616464726573730000000000000000604482015260640162000053565b600280546001600160a01b0319166001600160a01b03929092169190911790556200016c565b600080546001600160a01b038381166001600160a01b0319831681178455604051919092169283917f8be0079c531659141344cd1fd0a4f28419497f9722a3daafe3b4186f6b6457e09190a35050565b6000602082840312156200014d57600080fd5b81516001600160a01b03811681146200016557600080fd5b9392505050565b611745806200017c6000396000f3fe6080604052600436106101095760003560e01c8063885950a711610095578063cc0c303911610064578063cc0c303914610216578063e55ffcc11461030c578063f0f4426014610339578063f2fde38b14610359578063fe8c7f541461037957600080fd5b8063885950a71461027d5780638da5cb5b146102ae578063aa2dd666146102cc578063c759e5f6146102df57600080fd5b806361d027b3116100dc57806361d027b3146101c357806364361f70146101fb57806366fab57c14610216578063715018a61461022b578063805f9d751461024257600080fd5b80630da7cb5e1461010e5780630f54b88e14610141578063355703b7146101715780634f3f42921461018b575b600080fd5b34801561011a57600080fd5b5061012e6101293660046110ff565b610399565b6040519081526020015b60405180910390f35b34801561014d57600080fd5b5061016161015c3660046110ff565b6103c5565b6040519015158152602001610138565b34801561017d57600080fd5b5066038d7ea4c6800061012e565b34801561019757600080fd5b5061012e6101a63660046111e4565b805160208183018101805160048252928201919093012091525481565b3480156101cf57600080fd5b506002546101e3906001600160a01b031681565b6040516001600160a01b039091168152602001610138565b34801561020757600080fd5b5061012e66038d7ea4c6800081565b34801561022257600080fd5b5061012e603281565b34801561023757600080fd5b506102406103f4565b005b34801561024e57600080fd5b5061016161025d3660046111e4565b805160208183018101805160058252928201919093012091525460ff1681565b34801561028957600080fd5b5061029d610298366004611221565b610408565b6040516101389594939291906112ac565b3480156102ba57600080fd5b506000546001600160a01b03166101e3565b6102406102da366004611312565b610587565b3480156102eb57600080fd5b506102ff6102fa3660046110ff565b610b85565b6040516101389190611393565b34801561031857600080fd5b5061032c6103273660046110ff565b610d5b565b6040516101389190611446565b34801561034557600080fd5b50610240610354366004611460565b610e6d565b34801561036557600080fd5b50610240610374366004611460565b610f2c565b34801561038557600080fd5b5061032c6103943660046111e4565b610f6a565b6000600483836040516103ad92919061147b565b90815260200160405180910390205490505b92915050565b6000600583836040516103d992919061147b565b9081526040519081900360200190205460ff16905092915050565b6103fc61100f565b610406600061103c565b565b8151602081840181018051600382529282019185019190912091905280548290811061043357600080fd5b9060005260206000209060050201600091509150508060000180546104579061148b565b80601f01602080910402602001604051908101604052809291908181526020018280546104839061148b565b80156104d05780601f106104a5576101008083540402835291602001916104d0565b820191906000526020600020905b8154815290600101906020018083116104b357829003601f168201915b5050505050908060010180546104e59061148b565b80601f01602080910402602001604051908101604052809291908181526020018280546105119061148b565b801561055e5780601f106105335761010080835404028352916020019161055e565b820191906000526020600020905b81548152906001019060200180831161054157829003601f168201915b505050506002830154600384015460049094015492936001600160a01b03918216939116915085565b61058f61108c565b836105d55760405162461bcd60e51b8152602060048201526011602482015270125b9d985b1a59081c185c995b9d081251607a1b60448201526064015b60405180910390fd5b816106145760405162461bcd60e51b815260206004820152600f60248201526e125b9d985b1a59081958da1bc81251608a1b60448201526064016105cc565b6005838360405161062692919061147b565b9081526040519081900360200190205460ff16156106865760405162461bcd60e51b815260206004820152601a60248201527f416c72656164792072656769737465726564206173206563686f00000000000060448201526064016105cc565b848460405161069692919061147b565b604051809103902083836040516106ae92919061147b565b6040518091039020036106f85760405162461bcd60e51b815260206004820152601260248201527121b0b73737ba1032b1b4379034ba39b2b63360711b60448201526064016105cc565b6001600160a01b03811661074e5760405162461bcd60e51b815260206004820152601a60248201527f496e76616c696420706172656e742062726f616463617374657200000000000060448201526064016105cc565b66038d7ea4c6800034101561079d5760405162461bcd60e51b8152602060048201526015602482015274496e73756666696369656e74206563686f2066656560581b60448201526064016105cc565b600060646107ac6032346114db565b6107b691906114f2565b905060006107c48234611514565b9050600387876040516107d892919061147b565b90815260200160405180910390206040518060a0016040528087878080601f016020809104026020016040519081016040528093929190818152602001838380828437600092019190915250505090825250604080516020601f8c018190048102820181019092528a815291810191908b908b908190840183828082843760009201829052509385525050336020808501919091526001600160a01b0389166040850152426060909401939093525083546001810185559381522081519192600502019081906108a89082611576565b50602082015160018201906108bd9082611576565b506040828101516002830180546001600160a01b039283166001600160a01b031991821617909155606085015160038501805491909316911617905560809092015160049091015551600190600590610919908890889061147b565b908152604051908190036020018120805492151560ff19909316929092179091558790879060069061094e908990899061147b565b90815260200160405180910390209182610969929190611636565b506004878760405161097c92919061147b565b9081526040519081900360200190208054906000610999836116f6565b90915550508115610a42576000836001600160a01b03168360405160006040518083038185875af1925050503d80600081146109f1576040519150601f19603f3d011682016040523d82523d6000602084013e6109f6565b606091505b5050905080610a405760405162461bcd60e51b815260206004820152601660248201527510dc99585d1bdc881c185e5b595b9d0819985a5b195960521b60448201526064016105cc565b505b8015610aed576002546040516000916001600160a01b03169083908381818185875af1925050503d8060008114610a95576040519150601f19603f3d011682016040523d82523d6000602084013e610a9a565b606091505b5050905080610aeb5760405162461bcd60e51b815260206004820152601760248201527f506c6174666f726d207061796d656e74206661696c656400000000000000000060448201526064016105cc565b505b8484604051610afd92919061147b565b60405180910390208787604051610b1592919061147b565b604080519182900382203383526001600160a01b038716602084015242838301526060830186905260808301859052905190917f4442d42ecd976eb6ce07c6b9d37676c1a75d6df21fed41a7c0bdc8fbabea0843919081900360a00190a35050610b7e60018055565b5050505050565b606060038383604051610b9992919061147b565b9081526020016040518091039020805480602002602001604051908101604052809291908181526020016000905b82821015610d4f57838290600052602060002090600502016040518060a0016040529081600082018054610bfa9061148b565b80601f0160208091040260200160405190810160405280929190818152602001828054610c269061148b565b8015610c735780601f10610c4857610100808354040283529160200191610c73565b820191906000526020600020905b815481529060010190602001808311610c5657829003601f168201915b50505050508152602001600182018054610c8c9061148b565b80601f0160208091040260200160405190810160405280929190818152602001828054610cb89061148b565b8015610d055780601f10610cda57610100808354040283529160200191610d05565b820191906000526020600020905b815481529060010190602001808311610ce857829003601f168201915b505050918352505060028201546001600160a01b03908116602080840191909152600384015490911660408301526004909201546060909101529082526001929092019101610bc7565b50505050905092915050565b606060058383604051610d6f92919061147b565b9081526040519081900360200190205460ff16610dbc5760405162461bcd60e51b815260206004820152600b60248201526a4e6f7420616e206563686f60a81b60448201526064016105cc565b60068383604051610dce92919061147b565b90815260200160405180910390208054610de79061148b565b80601f0160208091040260200160405190810160405280929190818152602001828054610e139061148b565b8015610e605780601f10610e3557610100808354040283529160200191610e60565b820191906000526020600020905b815481529060010190602001808311610e4357829003601f168201915b5050505050905092915050565b610e7561100f565b6001600160a01b038116610ecb5760405162461bcd60e51b815260206004820152601860248201527f496e76616c69642074726561737572792061646472657373000000000000000060448201526064016105cc565b600280546001600160a01b038381166001600160a01b031983168117909355604080519190921680825260208201939093527f4ab5be82436d353e61ca18726e984e561f5c1cc7c6d38b29d2553c790434705a910160405180910390a15050565b610f3461100f565b6001600160a01b038116610f5e57604051631e4fbdf760e01b8152600060048201526024016105cc565b610f678161103c565b50565b805160208183018101805160068252928201919093012091528054610f8e9061148b565b80601f0160208091040260200160405190810160405280929190818152602001828054610fba9061148b565b80156110075780601f10610fdc57610100808354040283529160200191611007565b820191906000526020600020905b815481529060010190602001808311610fea57829003601f168201915b505050505081565b6000546001600160a01b031633146104065760405163118cdaa760e01b81523360048201526024016105cc565b600080546001600160a01b038381166001600160a01b0319831681178455604051919092169283917f8be0079c531659141344cd1fd0a4f28419497f9722a3daafe3b4186f6b6457e09190a35050565b6002600154036110af57604051633ee5aeb560e01b815260040160405180910390fd5b6002600155565b60008083601f8401126110c857600080fd5b50813567ffffffffffffffff8111156110e057600080fd5b6020830191508360208285010111156110f857600080fd5b9250929050565b6000806020838503121561111257600080fd5b823567ffffffffffffffff81111561112957600080fd5b611135858286016110b6565b90969095509350505050565b634e487b7160e01b600052604160045260246000fd5b600082601f83011261116857600080fd5b813567ffffffffffffffff8082111561118357611183611141565b604051601f8301601f19908116603f011681019082821181831017156111ab576111ab611141565b816040528381528660208588010111156111c457600080fd5b836020870160208301376000602085830101528094505050505092915050565b6000602082840312156111f657600080fd5b813567ffffffffffffffff81111561120d57600080fd5b61121984828501611157565b949350505050565b6000806040838503121561123457600080fd5b823567ffffffffffffffff81111561124b57600080fd5b61125785828601611157565b95602094909401359450505050565b6000815180845260005b8181101561128c57602081850181015186830182015201611270565b506000602082860101526020601f19601f83011685010191505092915050565b60a0815260006112bf60a0830188611266565b82810360208401526112d18188611266565b6001600160a01b03968716604085015294909516606083015250608001529392505050565b80356001600160a01b038116811461130d57600080fd5b919050565b60008060008060006060868803121561132a57600080fd5b853567ffffffffffffffff8082111561134257600080fd5b61134e89838a016110b6565b9097509550602088013591508082111561136757600080fd5b50611374888289016110b6565b90945092506113879050604087016112f6565b90509295509295909350565b60006020808301818452808551808352604092508286019150828160051b87010184880160005b8381101561143857603f19898403018552815160a081518186526113e082870182611266565b915050888201518582038a8701526113f88282611266565b838a01516001600160a01b03908116888c0152606080860151909116908801526080938401519390960192909252505093860193908601906001016113ba565b509098975050505050505050565b6020815260006114596020830184611266565b9392505050565b60006020828403121561147257600080fd5b611459826112f6565b8183823760009101908152919050565b600181811c9082168061149f57607f821691505b6020821081036114bf57634e487b7160e01b600052602260045260246000fd5b50919050565b634e487b7160e01b600052601160045260246000fd5b80820281158282048414176103bf576103bf6114c5565b60008261150f57634e487b7160e01b600052601260045260246000fd5b500490565b818103818111156103bf576103bf6114c5565b601f82111561157157600081815260208120601f850160051c8101602086101561154e5750805b601f850160051c820191505b8181101561156d5782815560010161155a565b5050505b505050565b815167ffffffffffffffff81111561159057611590611141565b6115a48161159e845461148b565b84611527565b602080601f8311600181146115d957600084156115c15750858301515b600019600386901b1c1916600185901b17855561156d565b600085815260208120601f198616915b82811015611608578886015182559484019460019091019084016115e9565b50858210156116265787850151600019600388901b60f8161c191681555b5050505050600190811b01905550565b67ffffffffffffffff83111561164e5761164e611141565b6116628361165c835461148b565b83611527565b6000601f841160018114611696576000851561167e5750838201355b600019600387901b1c1916600186901b178355610b7e565b600083815260209020601f19861690835b828110156116c757868501358255602094850194600190920191016116a7565b50868210156116e45760001960f88860031b161c19848701351681555b505060018560011b0183555050505050565b600060018201611708576117086114c5565b506001019056fea2646970667358221220da84ae6e314f361384612126250b92e96da68fe63e5430a541e6233dc344b96964736f6c63430008140033",
  "linkReferences": {},
  "deployedLinkReferences": {}
}